{
  "_format": "hh-sol-artifact-1",
  "contractName": "TToken",
  "sourceName": "contracts/TToken.sol",
  "abi": [
    {
      "inputs": [],
      "stateMutability": "nonpayable",
      "type": "constructor"
    },
    {
      "anonymous": false,
      "inputs": [
        {
          "indexed": true,
          "internalType": "address",
          "name": "account",
          "type": "address"
        },
        {
          "indexed": true,
          "internalType": "address",
          "name": "operator",
          "type": "address"
        },
        {
          "indexed": false,
          "internalType": "bool",
          "name": "approved",
          "type": "bool"
        }
      ],
      "name": "ApprovalForAll",
      "type": "event"
    },
    {
      "anonymous": false,
      "inputs": [
        {
          "indexed": true,
          "internalType": "address",
          "name": "previousOwner",
          "type": "address"
        },
        {
          "indexed": true,
          "internalType": "address",
          "name": "newOwner",
          "type": "address"
        }
      ],
      "name": "OwnershipTransferred",
      "type": "event"
    },
    {
      "anonymous": false,
      "inputs": [
        {
          "indexed": true,
          "internalType": "address",
          "name": "operator",
          "type": "address"
        },
        {
          "indexed": true,
          "internalType": "address",
          "name": "from",
          "type": "address"
        },
        {
          "indexed": true,
          "internalType": "address",
          "name": "to",
          "type": "address"
        },
        {
          "indexed": false,
          "internalType": "uint256[]",
          "name": "ids",
          "type": "uint256[]"
        },
        {
          "indexed": false,
          "internalType": "uint256[]",
          "name": "values",
          "type": "uint256[]"
        }
      ],
      "name": "TransferBatch",
      "type": "event"
    },
    {
      "anonymous": false,
      "inputs": [
        {
          "indexed": true,
          "internalType": "address",
          "name": "operator",
          "type": "address"
        },
        {
          "indexed": true,
          "internalType": "address",
          "name": "from",
          "type": "address"
        },
        {
          "indexed": true,
          "internalType": "address",
          "name": "to",
          "type": "address"
        },
        {
          "indexed": false,
          "internalType": "uint256",
          "name": "id",
          "type": "uint256"
        },
        {
          "indexed": false,
          "internalType": "uint256",
          "name": "value",
          "type": "uint256"
        }
      ],
      "name": "TransferSingle",
      "type": "event"
    },
    {
      "anonymous": false,
      "inputs": [
        {
          "indexed": false,
          "internalType": "string",
          "name": "value",
          "type": "string"
        },
        {
          "indexed": true,
          "internalType": "uint256",
          "name": "id",
          "type": "uint256"
        }
      ],
      "name": "URI",
      "type": "event"
    },
    {
      "inputs": [
        {
          "internalType": "address",
          "name": "account",
          "type": "address"
        },
        {
          "internalType": "uint256",
          "name": "id",
          "type": "uint256"
        }
      ],
      "name": "balanceOf",
      "outputs": [
        {
          "internalType": "uint256",
          "name": "",
          "type": "uint256"
        }
      ],
      "stateMutability": "view",
      "type": "function"
    },
    {
      "inputs": [
        {
          "internalType": "address[]",
          "name": "accounts",
          "type": "address[]"
        },
        {
          "internalType": "uint256[]",
          "name": "ids",
          "type": "uint256[]"
        }
      ],
      "name": "balanceOfBatch",
      "outputs": [
        {
          "internalType": "uint256[]",
          "name": "",
          "type": "uint256[]"
        }
      ],
      "stateMutability": "view",
      "type": "function"
    },
    {
      "inputs": [
        {
          "internalType": "address",
          "name": "account",
          "type": "address"
        },
        {
          "internalType": "uint256",
          "name": "id",
          "type": "uint256"
        },
        {
          "internalType": "uint256",
          "name": "value",
          "type": "uint256"
        }
      ],
      "name": "burn",
      "outputs": [],
      "stateMutability": "nonpayable",
      "type": "function"
    },
    {
      "inputs": [
        {
          "internalType": "address",
          "name": "account",
          "type": "address"
        },
        {
          "internalType": "uint256[]",
          "name": "ids",
          "type": "uint256[]"
        },
        {
          "internalType": "uint256[]",
          "name": "values",
          "type": "uint256[]"
        }
      ],
      "name": "burnBatch",
      "outputs": [],
      "stateMutability": "nonpayable",
      "type": "function"
    },
    {
      "inputs": [
        {
          "internalType": "address",
          "name": "account",
          "type": "address"
        },
        {
          "internalType": "address",
          "name": "operator",
          "type": "address"
        }
      ],
      "name": "isApprovedForAll",
      "outputs": [
        {
          "internalType": "bool",
          "name": "",
          "type": "bool"
        }
      ],
      "stateMutability": "view",
      "type": "function"
    },
    {
      "inputs": [
        {
          "internalType": "address",
          "name": "account",
          "type": "address"
        },
        {
          "internalType": "uint256",
          "name": "id",
          "type": "uint256"
        },
        {
          "internalType": "uint256",
          "name": "amount",
          "type": "uint256"
        },
        {
          "internalType": "bytes",
          "name": "",
          "type": "bytes"
        }
      ],
      "name": "mint",
      "outputs": [],
      "stateMutability": "nonpayable",
      "type": "function"
    },
    {
      "inputs": [
        {
          "internalType": "address",
          "name": "to",
          "type": "address"
        },
        {
          "internalType": "uint256[]",
          "name": "ids",
          "type": "uint256[]"
        },
        {
          "internalType": "uint256[]",
          "name": "amounts",
          "type": "uint256[]"
        },
        {
          "internalType": "bytes",
          "name": "data",
          "type": "bytes"
        }
      ],
      "name": "mintBatch",
      "outputs": [],
      "stateMutability": "nonpayable",
      "type": "function"
    },
    {
      "inputs": [],
      "name": "owner",
      "outputs": [
        {
          "internalType": "address",
          "name": "",
          "type": "address"
        }
      ],
      "stateMutability": "view",
      "type": "function"
    },
    {
      "inputs": [],
      "name": "renounceOwnership",
      "outputs": [],
      "stateMutability": "nonpayable",
      "type": "function"
    },
    {
      "inputs": [
        {
          "internalType": "address",
          "name": "from",
          "type": "address"
        },
        {
          "internalType": "address",
          "name": "to",
          "type": "address"
        },
        {
          "internalType": "uint256[]",
          "name": "ids",
          "type": "uint256[]"
        },
        {
          "internalType": "uint256[]",
          "name": "amounts",
          "type": "uint256[]"
        },
        {
          "internalType": "bytes",
          "name": "data",
          "type": "bytes"
        }
      ],
      "name": "safeBatchTransferFrom",
      "outputs": [],
      "stateMutability": "nonpayable",
      "type": "function"
    },
    {
      "inputs": [
        {
          "internalType": "address",
          "name": "from",
          "type": "address"
        },
        {
          "internalType": "address",
          "name": "to",
          "type": "address"
        },
        {
          "internalType": "uint256",
          "name": "id",
          "type": "uint256"
        },
        {
          "internalType": "uint256",
          "name": "amount",
          "type": "uint256"
        },
        {
          "internalType": "bytes",
          "name": "data",
          "type": "bytes"
        }
      ],
      "name": "safeTransferFrom",
      "outputs": [],
      "stateMutability": "nonpayable",
      "type": "function"
    },
    {
      "inputs": [
        {
          "internalType": "address",
          "name": "owner",
          "type": "address"
        },
        {
          "internalType": "address",
          "name": "operator",
          "type": "address"
        },
        {
          "internalType": "bool",
          "name": "approved",
          "type": "bool"
        }
      ],
      "name": "setApprovalForAll",
      "outputs": [],
      "stateMutability": "nonpayable",
      "type": "function"
    },
    {
      "inputs": [
        {
          "internalType": "address",
          "name": "",
          "type": "address"
        },
        {
          "internalType": "bool",
          "name": "",
          "type": "bool"
        }
      ],
      "name": "setApprovalForAll",
      "outputs": [],
      "stateMutability": "nonpayable",
      "type": "function"
    },
    {
      "inputs": [
        {
          "internalType": "address",
          "name": "_minter",
          "type": "address"
        }
      ],
      "name": "setMinter",
      "outputs": [],
      "stateMutability": "nonpayable",
      "type": "function"
    },
    {
      "inputs": [
        {
          "internalType": "bytes4",
          "name": "interfaceId",
          "type": "bytes4"
        }
      ],
      "name": "supportsInterface",
      "outputs": [
        {
          "internalType": "bool",
          "name": "",
          "type": "bool"
        }
      ],
      "stateMutability": "view",
      "type": "function"
    },
    {
      "inputs": [
        {
          "internalType": "address",
          "name": "newOwner",
          "type": "address"
        }
      ],
      "name": "transferOwnership",
      "outputs": [],
      "stateMutability": "nonpayable",
      "type": "function"
    },
    {
      "inputs": [
        {
          "internalType": "uint256",
          "name": "",
          "type": "uint256"
        }
      ],
      "name": "uri",
      "outputs": [
        {
          "internalType": "string",
          "name": "",
          "type": "string"
        }
      ],
      "stateMutability": "view",
      "type": "function"
    }
  ],
  "bytecode": "0x60806040523480156200001157600080fd5b506040518060200160405280600081525062000033816200005a60201b60201c565b5062000054620000486200007660201b60201c565b6200007e60201b60201c565b62000259565b80600290805190602001906200007292919062000144565b5050565b600033905090565b6000600360009054906101000a900473ffffffffffffffffffffffffffffffffffffffff16905081600360006101000a81548173ffffffffffffffffffffffffffffffffffffffff021916908373ffffffffffffffffffffffffffffffffffffffff1602179055508173ffffffffffffffffffffffffffffffffffffffff168173ffffffffffffffffffffffffffffffffffffffff167f8be0079c531659141344cd1fd0a4f28419497f9722a3daafe3b4186f6b6457e060405160405180910390a35050565b8280546200015290620001f4565b90600052602060002090601f016020900481019282620001765760008555620001c2565b82601f106200019157805160ff1916838001178555620001c2565b82800160010185558215620001c2579182015b82811115620001c1578251825591602001919060010190620001a4565b5b509050620001d19190620001d5565b5090565b5b80821115620001f0576000816000905550600101620001d6565b5090565b600060028204905060018216806200020d57607f821691505b602082108114156200022457620002236200022a565b5b50919050565b7f4e487b7100000000000000000000000000000000000000000000000000000000600052602260045260246000fd5b613cd280620002696000396000f3fe608060405234801561001057600080fd5b506004361061010a5760003560e01c8063715018a6116100a2578063e985e9c511610071578063e985e9c51461029f578063f242432a146102cf578063f2fde38b146102eb578063f5298aca14610307578063fca3b5aa146103235761010a565b8063715018a61461023f578063731133e9146102495780638da5cb5b14610265578063a22cb465146102835761010a565b80632eb2c2d6116100de5780632eb2c2d6146101bb578063367605ca146101d75780634e1273f4146101f35780636b20c454146102235761010a565b8062fdd58e1461010f57806301ffc9a71461013f5780630e89341c1461016f5780631f7fdffa1461019f575b600080fd5b610129600480360381019061012491906129d8565b61033f565b60405161013691906132cf565b60405180910390f35b61015960048036038101906101549190612b4a565b610408565b6040516101669190613072565b60405180910390f35b61018960048036038101906101849190612b9c565b6104ea565b604051610196919061308d565b60405180910390f35b6101b960048036038101906101b491906128f1565b61057e565b005b6101d560048036038101906101d091906126d5565b610598565b005b6101f160048036038101906101ec9190612794565b610639565b005b61020d60048036038101906102089190612ade565b6106d9565b60405161021a9190613019565b60405180910390f35b61023d60048036038101906102389190612872565b61088a565b005b610247610927565b005b610263600480360381019061025e9190612a63565b61093b565b005b61026d6109ec565b60405161027a9190612f3c565b60405180910390f35b61029d6004803603810190610298919061299c565b610a16565b005b6102b960048036038101906102b49190612699565b610a51565b6040516102c69190613072565b60405180910390f35b6102e960048036038101906102e491906127e3565b610ae5565b005b61030560048036038101906103009190612670565b610b86565b005b610321600480360381019061031c9190612a14565b610c0a565b005b61033d60048036038101906103389190612670565b610ca7565b005b60008073ffffffffffffffffffffffffffffffffffffffff168373ffffffffffffffffffffffffffffffffffffffff1614156103b0576040517f08c379a00000000000000000000000000000000000000000000000000000000081526004016103a79061318f565b60405180910390fd5b60008083815260200190815260200160002060008473ffffffffffffffffffffffffffffffffffffffff1673ffffffffffffffffffffffffffffffffffffffff16815260200190815260200160002054905092915050565b60007fd9b67a26000000000000000000000000000000000000000000000000000000007bffffffffffffffffffffffffffffffffffffffffffffffffffffffff1916827bffffffffffffffffffffffffffffffffffffffffffffffffffffffff191614806104d357507f0e89341c000000000000000000000000000000000000000000000000000000007bffffffffffffffffffffffffffffffffffffffffffffffffffffffff1916827bffffffffffffffffffffffffffffffffffffffffffffffffffffffff1916145b806104e357506104e282610cf3565b5b9050919050565b6060600280546104f99061353e565b80601f01602080910402602001604051908101604052809291908181526020018280546105259061353e565b80156105725780601f1061054757610100808354040283529160200191610572565b820191906000526020600020905b81548152906001019060200180831161055557829003601f168201915b50505050509050919050565b610586610d5d565b61059284848484610ddb565b50505050565b6105a0611054565b73ffffffffffffffffffffffffffffffffffffffff168573ffffffffffffffffffffffffffffffffffffffff1614806105e657506105e5856105e0611054565b610a51565b5b610625576040517f08c379a000000000000000000000000000000000000000000000000000000000815260040161061c906130cf565b60405180910390fd5b610632858585858561105c565b5050505050565b600460009054906101000a900473ffffffffffffffffffffffffffffffffffffffff1673ffffffffffffffffffffffffffffffffffffffff163373ffffffffffffffffffffffffffffffffffffffff16146106c9576040517f08c379a00000000000000000000000000000000000000000000000000000000081526004016106c09061316f565b60405180910390fd5b6106d48383836113ca565b505050565b6060815183511461071f576040517f08c379a00000000000000000000000000000000000000000000000000000000081526004016107169061326f565b60405180910390fd5b6000835167ffffffffffffffff811115610762577f4e487b7100000000000000000000000000000000000000000000000000000000600052604160045260246000fd5b6040519080825280602002602001820160405280156107905781602001602082028036833780820191505090505b50905060005b845181101561087f576108298582815181106107db577f4e487b7100000000000000000000000000000000000000000000000000000000600052603260045260246000fd5b602002602001015185838151811061081c577f4e487b7100000000000000000000000000000000000000000000000000000000600052603260045260246000fd5b602002602001015161033f565b828281518110610862577f4e487b7100000000000000000000000000000000000000000000000000000000600052603260045260246000fd5b60200260200101818152505080610878906135a1565b9050610796565b508091505092915050565b610892611054565b73ffffffffffffffffffffffffffffffffffffffff168373ffffffffffffffffffffffffffffffffffffffff1614806108d857506108d7836108d2611054565b610a51565b5b610917576040517f08c379a000000000000000000000000000000000000000000000000000000000815260040161090e906130cf565b60405180910390fd5b610922838383611537565b505050565b61092f610d5d565b6109396000611852565b565b600460009054906101000a900473ffffffffffffffffffffffffffffffffffffffff1673ffffffffffffffffffffffffffffffffffffffff163373ffffffffffffffffffffffffffffffffffffffff16146109cb576040517f08c379a00000000000000000000000000000000000000000000000000000000081526004016109c2906131cf565b60405180910390fd5b6109e684848460405180602001604052806000815250611918565b50505050565b6000600360009054906101000a900473ffffffffffffffffffffffffffffffffffffffff16905090565b6040517f08c379a0000000000000000000000000000000000000000000000000000000008152600401610a489061314f565b60405180910390fd5b6000600160008473ffffffffffffffffffffffffffffffffffffffff1673ffffffffffffffffffffffffffffffffffffffff16815260200190815260200160002060008373ffffffffffffffffffffffffffffffffffffffff1673ffffffffffffffffffffffffffffffffffffffff16815260200190815260200160002060009054906101000a900460ff16905092915050565b610aed611054565b73ffffffffffffffffffffffffffffffffffffffff168573ffffffffffffffffffffffffffffffffffffffff161480610b335750610b3285610b2d611054565b610a51565b5b610b72576040517f08c379a0000000000000000000000000000000000000000000000000000000008152600401610b69906130cf565b60405180910390fd5b610b7f8585858585611ac9565b5050505050565b610b8e610d5d565b600073ffffffffffffffffffffffffffffffffffffffff168173ffffffffffffffffffffffffffffffffffffffff161415610bfe576040517f08c379a0000000000000000000000000000000000000000000000000000000008152600401610bf59061310f565b60405180910390fd5b610c0781611852565b50565b610c12611054565b73ffffffffffffffffffffffffffffffffffffffff168373ffffffffffffffffffffffffffffffffffffffff161480610c585750610c5783610c52611054565b610a51565b5b610c97576040517f08c379a0000000000000000000000000000000000000000000000000000000008152600401610c8e906130cf565b60405180910390fd5b610ca2838383611d65565b505050565b610caf610d5d565b80600460006101000a81548173ffffffffffffffffffffffffffffffffffffffff021916908373ffffffffffffffffffffffffffffffffffffffff16021790555050565b60007f01ffc9a7000000000000000000000000000000000000000000000000000000007bffffffffffffffffffffffffffffffffffffffffffffffffffffffff1916827bffffffffffffffffffffffffffffffffffffffffffffffffffffffff1916149050919050565b610d65611054565b73ffffffffffffffffffffffffffffffffffffffff16610d836109ec565b73ffffffffffffffffffffffffffffffffffffffff1614610dd9576040517f08c379a0000000000000000000000000000000000000000000000000000000008152600401610dd09061322f565b60405180910390fd5b565b600073ffffffffffffffffffffffffffffffffffffffff168473ffffffffffffffffffffffffffffffffffffffff161415610e4b576040517f08c379a0000000000000000000000000000000000000000000000000000000008152600401610e42906132af565b60405180910390fd5b8151835114610e8f576040517f08c379a0000000000000000000000000000000000000000000000000000000008152600401610e869061328f565b60405180910390fd5b6000610e99611054565b9050610eaa81600087878787611fac565b60005b8451811015610faf57838181518110610eef577f4e487b7100000000000000000000000000000000000000000000000000000000600052603260045260246000fd5b6020026020010151600080878481518110610f33577f4e487b7100000000000000000000000000000000000000000000000000000000600052603260045260246000fd5b6020026020010151815260200190815260200160002060008873ffffffffffffffffffffffffffffffffffffffff1673ffffffffffffffffffffffffffffffffffffffff1681526020019081526020016000206000828254610f959190613432565b925050819055508080610fa7906135a1565b915050610ead565b508473ffffffffffffffffffffffffffffffffffffffff16600073ffffffffffffffffffffffffffffffffffffffff168273ffffffffffffffffffffffffffffffffffffffff167f4a39dc06d4c0dbc64b70af90fd698a233a518aa5d07e595d983b8c0526c8f7fb878760405161102792919061303b565b60405180910390a461103e81600087878787611fb4565b61104d81600087878787611fbc565b5050505050565b600033905090565b81518351146110a0576040517f08c379a00000000000000000000000000000000000000000000000000000000081526004016110979061328f565b60405180910390fd5b600073ffffffffffffffffffffffffffffffffffffffff168473ffffffffffffffffffffffffffffffffffffffff161415611110576040517f08c379a0000000000000000000000000000000000000000000000000000000008152600401611107906131af565b60405180910390fd5b600061111a611054565b905061112a818787878787611fac565b60005b8451811015611327576000858281518110611171577f4e487b7100000000000000000000000000000000000000000000000000000000600052603260045260246000fd5b6020026020010151905060008583815181106111b6577f4e487b7100000000000000000000000000000000000000000000000000000000600052603260045260246000fd5b60200260200101519050600080600084815260200190815260200160002060008b73ffffffffffffffffffffffffffffffffffffffff1673ffffffffffffffffffffffffffffffffffffffff16815260200190815260200160002054905081811015611257576040517f08c379a000000000000000000000000000000000000000000000000000000000815260040161124e9061320f565b60405180910390fd5b81810360008085815260200190815260200160002060008c73ffffffffffffffffffffffffffffffffffffffff1673ffffffffffffffffffffffffffffffffffffffff168152602001908152602001600020819055508160008085815260200190815260200160002060008b73ffffffffffffffffffffffffffffffffffffffff1673ffffffffffffffffffffffffffffffffffffffff168152602001908152602001600020600082825461130c9190613432565b9250508190555050505080611320906135a1565b905061112d565b508473ffffffffffffffffffffffffffffffffffffffff168673ffffffffffffffffffffffffffffffffffffffff168273ffffffffffffffffffffffffffffffffffffffff167f4a39dc06d4c0dbc64b70af90fd698a233a518aa5d07e595d983b8c0526c8f7fb878760405161139e92919061303b565b60405180910390a46113b4818787878787611fb4565b6113c2818787878787611fbc565b505050505050565b8173ffffffffffffffffffffffffffffffffffffffff168373ffffffffffffffffffffffffffffffffffffffff161415611439576040517f08c379a00000000000000000000000000000000000000000000000000000000081526004016114309061324f565b60405180910390fd5b80600160008573ffffffffffffffffffffffffffffffffffffffff1673ffffffffffffffffffffffffffffffffffffffff16815260200190815260200160002060008473ffffffffffffffffffffffffffffffffffffffff1673ffffffffffffffffffffffffffffffffffffffff16815260200190815260200160002060006101000a81548160ff0219169083151502179055508173ffffffffffffffffffffffffffffffffffffffff168373ffffffffffffffffffffffffffffffffffffffff167f17307eab39ab6107e8899845ad3d59bd9653f200f220920489ca2b5937696c318360405161152a9190613072565b60405180910390a3505050565b600073ffffffffffffffffffffffffffffffffffffffff168373ffffffffffffffffffffffffffffffffffffffff1614156115a7576040517f08c379a000000000000000000000000000000000000000000000000000000000815260040161159e906131ef565b60405180910390fd5b80518251146115eb576040517f08c379a00000000000000000000000000000000000000000000000000000000081526004016115e29061328f565b60405180910390fd5b60006115f5611054565b905061161581856000868660405180602001604052806000815250611fac565b60005b83518110156117ae57600084828151811061165c577f4e487b7100000000000000000000000000000000000000000000000000000000600052603260045260246000fd5b6020026020010151905060008483815181106116a1577f4e487b7100000000000000000000000000000000000000000000000000000000600052603260045260246000fd5b60200260200101519050600080600084815260200190815260200160002060008973ffffffffffffffffffffffffffffffffffffffff1673ffffffffffffffffffffffffffffffffffffffff16815260200190815260200160002054905081811015611742576040517f08c379a00000000000000000000000000000000000000000000000000000000081526004016117399061312f565b60405180910390fd5b81810360008085815260200190815260200160002060008a73ffffffffffffffffffffffffffffffffffffffff1673ffffffffffffffffffffffffffffffffffffffff1681526020019081526020016000208190555050505080806117a6906135a1565b915050611618565b50600073ffffffffffffffffffffffffffffffffffffffff168473ffffffffffffffffffffffffffffffffffffffff168273ffffffffffffffffffffffffffffffffffffffff167f4a39dc06d4c0dbc64b70af90fd698a233a518aa5d07e595d983b8c0526c8f7fb868660405161182692919061303b565b60405180910390a461184c81856000868660405180602001604052806000815250611fb4565b50505050565b6000600360009054906101000a900473ffffffffffffffffffffffffffffffffffffffff16905081600360006101000a81548173ffffffffffffffffffffffffffffffffffffffff021916908373ffffffffffffffffffffffffffffffffffffffff1602179055508173ffffffffffffffffffffffffffffffffffffffff168173ffffffffffffffffffffffffffffffffffffffff167f8be0079c531659141344cd1fd0a4f28419497f9722a3daafe3b4186f6b6457e060405160405180910390a35050565b600073ffffffffffffffffffffffffffffffffffffffff168473ffffffffffffffffffffffffffffffffffffffff161415611988576040517f08c379a000000000000000000000000000000000000000000000000000000000815260040161197f906132af565b60405180910390fd5b6000611992611054565b9050600061199f856121a3565b905060006119ac856121a3565b90506119bd83600089858589611fac565b8460008088815260200190815260200160002060008973ffffffffffffffffffffffffffffffffffffffff1673ffffffffffffffffffffffffffffffffffffffff1681526020019081526020016000206000828254611a1c9190613432565b925050819055508673ffffffffffffffffffffffffffffffffffffffff16600073ffffffffffffffffffffffffffffffffffffffff168473ffffffffffffffffffffffffffffffffffffffff167fc3d58168c5ae7397731d063d5bbf3d657854427343f4c083240f7aacaa2d0f628989604051611a9a9291906132ea565b60405180910390a4611ab183600089858589611fb4565b611ac083600089898989612269565b50505050505050565b600073ffffffffffffffffffffffffffffffffffffffff168473ffffffffffffffffffffffffffffffffffffffff161415611b39576040517f08c379a0000000000000000000000000000000000000000000000000000000008152600401611b30906131af565b60405180910390fd5b6000611b43611054565b90506000611b50856121a3565b90506000611b5d856121a3565b9050611b6d838989858589611fac565b600080600088815260200190815260200160002060008a73ffffffffffffffffffffffffffffffffffffffff1673ffffffffffffffffffffffffffffffffffffffff16815260200190815260200160002054905085811015611c04576040517f08c379a0000000000000000000000000000000000000000000000000000000008152600401611bfb9061320f565b60405180910390fd5b85810360008089815260200190815260200160002060008b73ffffffffffffffffffffffffffffffffffffffff1673ffffffffffffffffffffffffffffffffffffffff168152602001908152602001600020819055508560008089815260200190815260200160002060008a73ffffffffffffffffffffffffffffffffffffffff1673ffffffffffffffffffffffffffffffffffffffff1681526020019081526020016000206000828254611cb99190613432565b925050819055508773ffffffffffffffffffffffffffffffffffffffff168973ffffffffffffffffffffffffffffffffffffffff168573ffffffffffffffffffffffffffffffffffffffff167fc3d58168c5ae7397731d063d5bbf3d657854427343f4c083240f7aacaa2d0f628a8a604051611d369291906132ea565b60405180910390a4611d4c848a8a86868a611fb4565b611d5a848a8a8a8a8a612269565b505050505050505050565b600073ffffffffffffffffffffffffffffffffffffffff168373ffffffffffffffffffffffffffffffffffffffff161415611dd5576040517f08c379a0000000000000000000000000000000000000000000000000000000008152600401611dcc906131ef565b60405180910390fd5b6000611ddf611054565b90506000611dec846121a3565b90506000611df9846121a3565b9050611e1983876000858560405180602001604052806000815250611fac565b600080600087815260200190815260200160002060008873ffffffffffffffffffffffffffffffffffffffff1673ffffffffffffffffffffffffffffffffffffffff16815260200190815260200160002054905084811015611eb0576040517f08c379a0000000000000000000000000000000000000000000000000000000008152600401611ea79061312f565b60405180910390fd5b84810360008088815260200190815260200160002060008973ffffffffffffffffffffffffffffffffffffffff1673ffffffffffffffffffffffffffffffffffffffff16815260200190815260200160002081905550600073ffffffffffffffffffffffffffffffffffffffff168773ffffffffffffffffffffffffffffffffffffffff168573ffffffffffffffffffffffffffffffffffffffff167fc3d58168c5ae7397731d063d5bbf3d657854427343f4c083240f7aacaa2d0f628989604051611f7d9291906132ea565b60405180910390a4611fa384886000868660405180602001604052806000815250611fb4565b50505050505050565b505050505050565b505050505050565b611fdb8473ffffffffffffffffffffffffffffffffffffffff16612450565b1561219b578373ffffffffffffffffffffffffffffffffffffffff1663bc197c8187878686866040518663ffffffff1660e01b8152600401612021959493929190612f57565b602060405180830381600087803b15801561203b57600080fd5b505af192505050801561206c57506040513d601f19601f820116820180604052508101906120699190612b73565b60015b61211257612078613677565b806308c379a014156120d5575061208d613baa565b8061209857506120d7565b806040517f08c379a00000000000000000000000000000000000000000000000000000000081526004016120cc919061308d565b60405180910390fd5b505b6040517f08c379a0000000000000000000000000000000000000000000000000000000008152600401612109906130af565b60405180910390fd5b63bc197c8160e01b7bffffffffffffffffffffffffffffffffffffffffffffffffffffffff1916817bffffffffffffffffffffffffffffffffffffffffffffffffffffffff191614612199576040517f08c379a0000000000000000000000000000000000000000000000000000000008152600401612190906130ef565b60405180910390fd5b505b505050505050565b60606000600167ffffffffffffffff8111156121e8577f4e487b7100000000000000000000000000000000000000000000000000000000600052604160045260246000fd5b6040519080825280602002602001820160405280156122165781602001602082028036833780820191505090505b5090508281600081518110612254577f4e487b7100000000000000000000000000000000000000000000000000000000600052603260045260246000fd5b60200260200101818152505080915050919050565b6122888473ffffffffffffffffffffffffffffffffffffffff16612450565b15612448578373ffffffffffffffffffffffffffffffffffffffff1663f23a6e6187878686866040518663ffffffff1660e01b81526004016122ce959493929190612fbf565b602060405180830381600087803b1580156122e857600080fd5b505af192505050801561231957506040513d601f19601f820116820180604052508101906123169190612b73565b60015b6123bf57612325613677565b806308c379a01415612382575061233a613baa565b806123455750612384565b806040517f08c379a0000000000000000000000000000000000000000000000000000000008152600401612379919061308d565b60405180910390fd5b505b6040517f08c379a00000000000000000000000000000000000000000000000000000000081526004016123b6906130af565b60405180910390fd5b63f23a6e6160e01b7bffffffffffffffffffffffffffffffffffffffffffffffffffffffff1916817bffffffffffffffffffffffffffffffffffffffffffffffffffffffff191614612446576040517f08c379a000000000000000000000000000000000000000000000000000000000815260040161243d906130ef565b60405180910390fd5b505b505050505050565b6000808273ffffffffffffffffffffffffffffffffffffffff163b119050919050565b600061248661248184613338565b613313565b905080838252602082019050828560208602820111156124a557600080fd5b60005b858110156124d557816124bb8882612589565b8452602084019350602083019250506001810190506124a8565b5050509392505050565b60006124f26124ed84613364565b613313565b9050808382526020820190508285602086028201111561251157600080fd5b60005b858110156125415781612527888261265b565b845260208401935060208301925050600181019050612514565b5050509392505050565b600061255e61255984613390565b613313565b90508281526020810184848401111561257657600080fd5b6125818482856134fc565b509392505050565b60008135905061259881613c40565b92915050565b600082601f8301126125af57600080fd5b81356125bf848260208601612473565b91505092915050565b600082601f8301126125d957600080fd5b81356125e98482602086016124df565b91505092915050565b60008135905061260181613c57565b92915050565b60008135905061261681613c6e565b92915050565b60008151905061262b81613c6e565b92915050565b600082601f83011261264257600080fd5b813561265284826020860161254b565b91505092915050565b60008135905061266a81613c85565b92915050565b60006020828403121561268257600080fd5b600061269084828501612589565b91505092915050565b600080604083850312156126ac57600080fd5b60006126ba85828601612589565b92505060206126cb85828601612589565b9150509250929050565b600080600080600060a086880312156126ed57600080fd5b60006126fb88828901612589565b955050602061270c88828901612589565b945050604086013567ffffffffffffffff81111561272957600080fd5b612735888289016125c8565b935050606086013567ffffffffffffffff81111561275257600080fd5b61275e888289016125c8565b925050608086013567ffffffffffffffff81111561277b57600080fd5b61278788828901612631565b9150509295509295909350565b6000806000606084860312156127a957600080fd5b60006127b786828701612589565b93505060206127c886828701612589565b92505060406127d9868287016125f2565b9150509250925092565b600080600080600060a086880312156127fb57600080fd5b600061280988828901612589565b955050602061281a88828901612589565b945050604061282b8882890161265b565b935050606061283c8882890161265b565b925050608086013567ffffffffffffffff81111561285957600080fd5b61286588828901612631565b9150509295509295909350565b60008060006060848603121561288757600080fd5b600061289586828701612589565b935050602084013567ffffffffffffffff8111156128b257600080fd5b6128be868287016125c8565b925050604084013567ffffffffffffffff8111156128db57600080fd5b6128e7868287016125c8565b9150509250925092565b6000806000806080858703121561290757600080fd5b600061291587828801612589565b945050602085013567ffffffffffffffff81111561293257600080fd5b61293e878288016125c8565b935050604085013567ffffffffffffffff81111561295b57600080fd5b612967878288016125c8565b925050606085013567ffffffffffffffff81111561298457600080fd5b61299087828801612631565b91505092959194509250565b600080604083850312156129af57600080fd5b60006129bd85828601612589565b92505060206129ce858286016125f2565b9150509250929050565b600080604083850312156129eb57600080fd5b60006129f985828601612589565b9250506020612a0a8582860161265b565b9150509250929050565b600080600060608486031215612a2957600080fd5b6000612a3786828701612589565b9350506020612a488682870161265b565b9250506040612a598682870161265b565b9150509250925092565b60008060008060808587031215612a7957600080fd5b6000612a8787828801612589565b9450506020612a988782880161265b565b9350506040612aa98782880161265b565b925050606085013567ffffffffffffffff811115612ac657600080fd5b612ad287828801612631565b91505092959194509250565b60008060408385031215612af157600080fd5b600083013567ffffffffffffffff811115612b0b57600080fd5b612b178582860161259e565b925050602083013567ffffffffffffffff811115612b3457600080fd5b612b40858286016125c8565b9150509250929050565b600060208284031215612b5c57600080fd5b6000612b6a84828501612607565b91505092915050565b600060208284031215612b8557600080fd5b6000612b938482850161261c565b91505092915050565b600060208284031215612bae57600080fd5b6000612bbc8482850161265b565b91505092915050565b6000612bd18383612f1e565b60208301905092915050565b612be681613488565b82525050565b6000612bf7826133d1565b612c0181856133ff565b9350612c0c836133c1565b8060005b83811015612c3d578151612c248882612bc5565b9750612c2f836133f2565b925050600181019050612c10565b5085935050505092915050565b612c538161349a565b82525050565b6000612c64826133dc565b612c6e8185613410565b9350612c7e81856020860161350b565b612c8781613699565b840191505092915050565b6000612c9d826133e7565b612ca78185613421565b9350612cb781856020860161350b565b612cc081613699565b840191505092915050565b6000612cd8603483613421565b9150612ce3826136b7565b604082019050919050565b6000612cfb602f83613421565b9150612d0682613706565b604082019050919050565b6000612d1e602883613421565b9150612d2982613755565b604082019050919050565b6000612d41602683613421565b9150612d4c826137a4565b604082019050919050565b6000612d64602483613421565b9150612d6f826137f3565b604082019050919050565b6000612d87600883613421565b9150612d9282613842565b602082019050919050565b6000612daa602a83613421565b9150612db58261386b565b604082019050919050565b6000612dcd602a83613421565b9150612dd8826138ba565b604082019050919050565b6000612df0602583613421565b9150612dfb82613909565b604082019050919050565b6000612e13602783613421565b9150612e1e82613958565b604082019050919050565b6000612e36602383613421565b9150612e41826139a7565b604082019050919050565b6000612e59602a83613421565b9150612e64826139f6565b604082019050919050565b6000612e7c602083613421565b9150612e8782613a45565b602082019050919050565b6000612e9f602983613421565b9150612eaa82613a6e565b604082019050919050565b6000612ec2602983613421565b9150612ecd82613abd565b604082019050919050565b6000612ee5602883613421565b9150612ef082613b0c565b604082019050919050565b6000612f08602183613421565b9150612f1382613b5b565b604082019050919050565b612f27816134f2565b82525050565b612f36816134f2565b82525050565b6000602082019050612f516000830184612bdd565b92915050565b600060a082019050612f6c6000830188612bdd565b612f796020830187612bdd565b8181036040830152612f8b8186612bec565b90508181036060830152612f9f8185612bec565b90508181036080830152612fb38184612c59565b90509695505050505050565b600060a082019050612fd46000830188612bdd565b612fe16020830187612bdd565b612fee6040830186612f2d565b612ffb6060830185612f2d565b818103608083015261300d8184612c59565b90509695505050505050565b600060208201905081810360008301526130338184612bec565b905092915050565b600060408201905081810360008301526130558185612bec565b905081810360208301526130698184612bec565b90509392505050565b60006020820190506130876000830184612c4a565b92915050565b600060208201905081810360008301526130a78184612c92565b905092915050565b600060208201905081810360008301526130c881612ccb565b9050919050565b600060208201905081810360008301526130e881612cee565b9050919050565b6000602082019050818103600083015261310881612d11565b9050919050565b6000602082019050818103600083015261312881612d34565b9050919050565b6000602082019050818103600083015261314881612d57565b9050919050565b6000602082019050818103600083015261316881612d7a565b9050919050565b6000602082019050818103600083015261318881612d9d565b9050919050565b600060208201905081810360008301526131a881612dc0565b9050919050565b600060208201905081810360008301526131c881612de3565b9050919050565b600060208201905081810360008301526131e881612e06565b9050919050565b6000602082019050818103600083015261320881612e29565b9050919050565b6000602082019050818103600083015261322881612e4c565b9050919050565b6000602082019050818103600083015261324881612e6f565b9050919050565b6000602082019050818103600083015261326881612e92565b9050919050565b6000602082019050818103600083015261328881612eb5565b9050919050565b600060208201905081810360008301526132a881612ed8565b9050919050565b600060208201905081810360008301526132c881612efb565b9050919050565b60006020820190506132e46000830184612f2d565b92915050565b60006040820190506132ff6000830185612f2d565b61330c6020830184612f2d565b9392505050565b600061331d61332e565b90506133298282613570565b919050565b6000604051905090565b600067ffffffffffffffff82111561335357613352613648565b5b602082029050602081019050919050565b600067ffffffffffffffff82111561337f5761337e613648565b5b602082029050602081019050919050565b600067ffffffffffffffff8211156133ab576133aa613648565b5b6133b482613699565b9050602081019050919050565b6000819050602082019050919050565b600081519050919050565b600081519050919050565b600081519050919050565b6000602082019050919050565b600082825260208201905092915050565b600082825260208201905092915050565b600082825260208201905092915050565b600061343d826134f2565b9150613448836134f2565b9250827fffffffffffffffffffffffffffffffffffffffffffffffffffffffffffffffff0382111561347d5761347c6135ea565b5b828201905092915050565b6000613493826134d2565b9050919050565b60008115159050919050565b60007fffffffff0000000000000000000000000000000000000000000000000000000082169050919050565b600073ffffffffffffffffffffffffffffffffffffffff82169050919050565b6000819050919050565b82818337600083830152505050565b60005b8381101561352957808201518184015260208101905061350e565b83811115613538576000848401525b50505050565b6000600282049050600182168061355657607f821691505b6020821081141561356a57613569613619565b5b50919050565b61357982613699565b810181811067ffffffffffffffff8211171561359857613597613648565b5b80604052505050565b60006135ac826134f2565b91507fffffffffffffffffffffffffffffffffffffffffffffffffffffffffffffffff8214156135df576135de6135ea565b5b600182019050919050565b7f4e487b7100000000000000000000000000000000000000000000000000000000600052601160045260246000fd5b7f4e487b7100000000000000000000000000000000000000000000000000000000600052602260045260246000fd5b7f4e487b7100000000000000000000000000000000000000000000000000000000600052604160045260246000fd5b600060033d11156136965760046000803e6136936000516136aa565b90505b90565b6000601f19601f8301169050919050565b60008160e01c9050919050565b7f455243313135353a207472616e7366657220746f206e6f6e204552433131353560008201527f526563656976657220696d706c656d656e746572000000000000000000000000602082015250565b7f455243313135353a2063616c6c6572206973206e6f7420746f6b656e206f776e60008201527f6572206e6f7220617070726f7665640000000000000000000000000000000000602082015250565b7f455243313135353a204552433131353552656365697665722072656a6563746560008201527f6420746f6b656e73000000000000000000000000000000000000000000000000602082015250565b7f4f776e61626c653a206e6577206f776e657220697320746865207a65726f206160008201527f6464726573730000000000000000000000000000000000000000000000000000602082015250565b7f455243313135353a206275726e20616d6f756e7420657863656564732062616c60008201527f616e636500000000000000000000000000000000000000000000000000000000602082015250565b7f64697361626c6564000000000000000000000000000000000000000000000000600082015250565b7f6f6e6c79206d696e74657220636f6e747261637420697320616c6c6f7765642060008201527f746f20617070726f766500000000000000000000000000000000000000000000602082015250565b7f455243313135353a2061646472657373207a65726f206973206e6f742061207660008201527f616c6964206f776e657200000000000000000000000000000000000000000000602082015250565b7f455243313135353a207472616e7366657220746f20746865207a65726f20616460008201527f6472657373000000000000000000000000000000000000000000000000000000602082015250565b7f6f6e6c79206d696e74657220636f6e747261637420697320616c6c6f7765642060008201527f746f206d696e7400000000000000000000000000000000000000000000000000602082015250565b7f455243313135353a206275726e2066726f6d20746865207a65726f206164647260008201527f6573730000000000000000000000000000000000000000000000000000000000602082015250565b7f455243313135353a20696e73756666696369656e742062616c616e636520666f60008201527f72207472616e7366657200000000000000000000000000000000000000000000602082015250565b7f4f776e61626c653a2063616c6c6572206973206e6f7420746865206f776e6572600082015250565b7f455243313135353a2073657474696e6720617070726f76616c2073746174757360008201527f20666f722073656c660000000000000000000000000000000000000000000000602082015250565b7f455243313135353a206163636f756e747320616e6420696473206c656e67746860008201527f206d69736d617463680000000000000000000000000000000000000000000000602082015250565b7f455243313135353a2069647320616e6420616d6f756e7473206c656e6774682060008201527f6d69736d61746368000000000000000000000000000000000000000000000000602082015250565b7f455243313135353a206d696e7420746f20746865207a65726f2061646472657360008201527f7300000000000000000000000000000000000000000000000000000000000000602082015250565b600060443d1015613bba57613c3d565b613bc261332e565b60043d036004823e80513d602482011167ffffffffffffffff82111715613bea575050613c3d565b808201805167ffffffffffffffff811115613c085750505050613c3d565b80602083010160043d038501811115613c25575050505050613c3d565b613c3482602001850186613570565b82955050505050505b90565b613c4981613488565b8114613c5457600080fd5b50565b613c608161349a565b8114613c6b57600080fd5b50565b613c77816134a6565b8114613c8257600080fd5b50565b613c8e816134f2565b8114613c9957600080fd5b5056fea2646970667358221220dbbf134abf8fe8c613ca58c8a4e4f602f786063cf31a7d0ea6364102223d96f464736f6c63430008040033",
  "linkReferences": {},
  "deployedLinkReferences": {}
}