{
  "_format": "hh-sol-artifact-1",
  "contractName": "Forger",
  "sourceName": "contracts/Forger.sol",
  "abi": [
    {
      "inputs": [
        {
          "internalType": "address",
          "name": "_myToken",
          "type": "address"
        }
      ],
      "stateMutability": "nonpayable",
      "type": "constructor"
    },
    {
      "anonymous": false,
      "inputs": [
        {
          "indexed": true,
          "internalType": "address",
          "name": "previousOwner",
          "type": "address"
        },
        {
          "indexed": true,
          "internalType": "address",
          "name": "newOwner",
          "type": "address"
        }
      ],
      "name": "OwnershipTransferred",
      "type": "event"
    },
    {
      "inputs": [
        {
          "internalType": "uint256",
          "name": "id",
          "type": "uint256"
        }
      ],
      "name": "burnDerived",
      "outputs": [],
      "stateMutability": "nonpayable",
      "type": "function"
    },
    {
      "inputs": [
        {
          "internalType": "bool",
          "name": "t0",
          "type": "bool"
        },
        {
          "internalType": "bool",
          "name": "t1",
          "type": "bool"
        },
        {
          "internalType": "bool",
          "name": "t2",
          "type": "bool"
        }
      ],
      "name": "forge",
      "outputs": [],
      "stateMutability": "nonpayable",
      "type": "function"
    },
    {
      "inputs": [
        {
          "internalType": "uint256",
          "name": "id",
          "type": "uint256"
        }
      ],
      "name": "mintBasic",
      "outputs": [],
      "stateMutability": "nonpayable",
      "type": "function"
    },
    {
      "inputs": [],
      "name": "owner",
      "outputs": [
        {
          "internalType": "address",
          "name": "",
          "type": "address"
        }
      ],
      "stateMutability": "view",
      "type": "function"
    },
    {
      "inputs": [],
      "name": "renounceOwnership",
      "outputs": [],
      "stateMutability": "nonpayable",
      "type": "function"
    },
    {
      "inputs": [
        {
          "internalType": "uint256",
          "name": "idIn",
          "type": "uint256"
        },
        {
          "internalType": "uint256",
          "name": "idOut",
          "type": "uint256"
        }
      ],
      "name": "tradeDerived",
      "outputs": [],
      "stateMutability": "nonpayable",
      "type": "function"
    },
    {
      "inputs": [
        {
          "internalType": "address",
          "name": "newOwner",
          "type": "address"
        }
      ],
      "name": "transferOwnership",
      "outputs": [],
      "stateMutability": "nonpayable",
      "type": "function"
    }
  ],
  "bytecode": "0x60806040523480156200001157600080fd5b506040516200229038038062002290833981810160405281019062000037919062000182565b620000576200004b6200009f60201b60201c565b620000a760201b60201c565b80600160006101000a81548173ffffffffffffffffffffffffffffffffffffffff021916908373ffffffffffffffffffffffffffffffffffffffff16021790555050620001fc565b600033905090565b60008060009054906101000a900473ffffffffffffffffffffffffffffffffffffffff169050816000806101000a81548173ffffffffffffffffffffffffffffffffffffffff021916908373ffffffffffffffffffffffffffffffffffffffff1602179055508173ffffffffffffffffffffffffffffffffffffffff168173ffffffffffffffffffffffffffffffffffffffff167f8be0079c531659141344cd1fd0a4f28419497f9722a3daafe3b4186f6b6457e060405160405180910390a35050565b6000815190506200017c81620001e2565b92915050565b6000602082840312156200019557600080fd5b6000620001a5848285016200016b565b91505092915050565b6000620001bb82620001c2565b9050919050565b600073ffffffffffffffffffffffffffffffffffffffff82169050919050565b620001ed81620001ae565b8114620001f957600080fd5b50565b612084806200020c6000396000f3fe608060405234801561001057600080fd5b506004361061007d5760003560e01c80638da5cb5b1161005b5780638da5cb5b146100c4578063a5011147146100e2578063cd1ebfe2146100fe578063f2fde38b1461011a5761007d565b80630e05698f1461008257806365aa18b11461009e578063715018a6146100ba575b600080fd5b61009c60048036038101906100979190611a0d565b610136565b005b6100b860048036038101906100b39190611a5c565b6111d0565b005b6100c2611383565b005b6100cc611397565b6040516100d99190611c2f565b60405180910390f35b6100fc60048036038101906100f79190611a5c565b6113c0565b005b61011860048036038101906101139190611aae565b61154b565b005b610134600480360381019061012f91906119e4565b6117c2565b005b8280156101405750815b80156101495750805b1561065b576000600160009054906101000a900473ffffffffffffffffffffffffffffffffffffffff1673ffffffffffffffffffffffffffffffffffffffff1662fdd58e3360006040518363ffffffff1660e01b81526004016101ad929190611c81565b60206040518083038186803b1580156101c557600080fd5b505afa1580156101d9573d6000803e3d6000fd5b505050506040513d601f19601f820116820180604052508101906101fd9190611a85565b1161020757600080fd5b6000600160009054906101000a900473ffffffffffffffffffffffffffffffffffffffff1673ffffffffffffffffffffffffffffffffffffffff1662fdd58e3360016040518363ffffffff1660e01b8152600401610266929190611c81565b60206040518083038186803b15801561027e57600080fd5b505afa158015610292573d6000803e3d6000fd5b505050506040513d601f19601f820116820180604052508101906102b69190611a85565b116102c057600080fd5b6000600160009054906101000a900473ffffffffffffffffffffffffffffffffffffffff1673ffffffffffffffffffffffffffffffffffffffff1662fdd58e3360026040518363ffffffff1660e01b815260040161031f929190611c81565b60206040518083038186803b15801561033757600080fd5b505afa15801561034b573d6000803e3d6000fd5b505050506040513d601f19601f8201168201806040525081019061036f9190611a85565b1161037957600080fd5b600160009054906101000a900473ffffffffffffffffffffffffffffffffffffffff1673ffffffffffffffffffffffffffffffffffffffff1663367605ca333060016040518463ffffffff1660e01b81526004016103d993929190611c4a565b600060405180830381600087803b1580156103f357600080fd5b505af1158015610407573d6000803e3d6000fd5b50505050600160009054906101000a900473ffffffffffffffffffffffffffffffffffffffff1673ffffffffffffffffffffffffffffffffffffffff1663f5298aca33600060016040518463ffffffff1660e01b815260040161046c93929190611caa565b600060405180830381600087803b15801561048657600080fd5b505af115801561049a573d6000803e3d6000fd5b50505050600160009054906101000a900473ffffffffffffffffffffffffffffffffffffffff1673ffffffffffffffffffffffffffffffffffffffff1663f5298aca336001806040518463ffffffff1660e01b81526004016104fe93929190611caa565b600060405180830381600087803b15801561051857600080fd5b505af115801561052c573d6000803e3d6000fd5b50505050600160009054906101000a900473ffffffffffffffffffffffffffffffffffffffff1673ffffffffffffffffffffffffffffffffffffffff1663f5298aca33600260016040518463ffffffff1660e01b815260040161059193929190611caa565b600060405180830381600087803b1580156105ab57600080fd5b505af11580156105bf573d6000803e3d6000fd5b50505050600160009054906101000a900473ffffffffffffffffffffffffffffffffffffffff1673ffffffffffffffffffffffffffffffffffffffff1663731133e933600660016040518463ffffffff1660e01b815260040161062493929190611ce1565b600060405180830381600087803b15801561063e57600080fd5b505af1158015610652573d6000803e3d6000fd5b505050506111cb565b8280156106655750815b15610a2b576000600160009054906101000a900473ffffffffffffffffffffffffffffffffffffffff1673ffffffffffffffffffffffffffffffffffffffff1662fdd58e3360006040518363ffffffff1660e01b81526004016106c9929190611c81565b60206040518083038186803b1580156106e157600080fd5b505afa1580156106f5573d6000803e3d6000fd5b505050506040513d601f19601f820116820180604052508101906107199190611a85565b1161072357600080fd5b6000600160009054906101000a900473ffffffffffffffffffffffffffffffffffffffff1673ffffffffffffffffffffffffffffffffffffffff1662fdd58e3360016040518363ffffffff1660e01b8152600401610782929190611c81565b60206040518083038186803b15801561079a57600080fd5b505afa1580156107ae573d6000803e3d6000fd5b505050506040513d601f19601f820116820180604052508101906107d29190611a85565b116107dc57600080fd5b600160009054906101000a900473ffffffffffffffffffffffffffffffffffffffff1673ffffffffffffffffffffffffffffffffffffffff1663367605ca333060016040518463ffffffff1660e01b815260040161083c93929190611c4a565b600060405180830381600087803b15801561085657600080fd5b505af115801561086a573d6000803e3d6000fd5b50505050600160009054906101000a900473ffffffffffffffffffffffffffffffffffffffff1673ffffffffffffffffffffffffffffffffffffffff1663f5298aca33600060016040518463ffffffff1660e01b81526004016108cf93929190611caa565b600060405180830381600087803b1580156108e957600080fd5b505af11580156108fd573d6000803e3d6000fd5b50505050600160009054906101000a900473ffffffffffffffffffffffffffffffffffffffff1673ffffffffffffffffffffffffffffffffffffffff1663f5298aca336001806040518463ffffffff1660e01b815260040161096193929190611caa565b600060405180830381600087803b15801561097b57600080fd5b505af115801561098f573d6000803e3d6000fd5b50505050600160009054906101000a900473ffffffffffffffffffffffffffffffffffffffff1673ffffffffffffffffffffffffffffffffffffffff1663731133e933600360016040518463ffffffff1660e01b81526004016109f493929190611ce1565b600060405180830381600087803b158015610a0e57600080fd5b505af1158015610a22573d6000803e3d6000fd5b505050506111ca565b818015610a355750805b15610dfb576000600160009054906101000a900473ffffffffffffffffffffffffffffffffffffffff1673ffffffffffffffffffffffffffffffffffffffff1662fdd58e3360016040518363ffffffff1660e01b8152600401610a99929190611c81565b60206040518083038186803b158015610ab157600080fd5b505afa158015610ac5573d6000803e3d6000fd5b505050506040513d601f19601f82011682018060405250810190610ae99190611a85565b11610af357600080fd5b6000600160009054906101000a900473ffffffffffffffffffffffffffffffffffffffff1673ffffffffffffffffffffffffffffffffffffffff1662fdd58e3360026040518363ffffffff1660e01b8152600401610b52929190611c81565b60206040518083038186803b158015610b6a57600080fd5b505afa158015610b7e573d6000803e3d6000fd5b505050506040513d601f19601f82011682018060405250810190610ba29190611a85565b11610bac57600080fd5b600160009054906101000a900473ffffffffffffffffffffffffffffffffffffffff1673ffffffffffffffffffffffffffffffffffffffff1663367605ca333060016040518463ffffffff1660e01b8152600401610c0c93929190611c4a565b600060405180830381600087803b158015610c2657600080fd5b505af1158015610c3a573d6000803e3d6000fd5b50505050600160009054906101000a900473ffffffffffffffffffffffffffffffffffffffff1673ffffffffffffffffffffffffffffffffffffffff1663f5298aca336001806040518463ffffffff1660e01b8152600401610c9e93929190611caa565b600060405180830381600087803b158015610cb857600080fd5b505af1158015610ccc573d6000803e3d6000fd5b50505050600160009054906101000a900473ffffffffffffffffffffffffffffffffffffffff1673ffffffffffffffffffffffffffffffffffffffff1663f5298aca33600260016040518463ffffffff1660e01b8152600401610d3193929190611caa565b600060405180830381600087803b158015610d4b57600080fd5b505af1158015610d5f573d6000803e3d6000fd5b50505050600160009054906101000a900473ffffffffffffffffffffffffffffffffffffffff1673ffffffffffffffffffffffffffffffffffffffff1663731133e933600460016040518463ffffffff1660e01b8152600401610dc493929190611ce1565b600060405180830381600087803b158015610dde57600080fd5b505af1158015610df2573d6000803e3d6000fd5b505050506111c9565b828015610e055750805b156111c8576000600160009054906101000a900473ffffffffffffffffffffffffffffffffffffffff1673ffffffffffffffffffffffffffffffffffffffff1662fdd58e3360006040518363ffffffff1660e01b8152600401610e69929190611c81565b60206040518083038186803b158015610e8157600080fd5b505afa158015610e95573d6000803e3d6000fd5b505050506040513d601f19601f82011682018060405250810190610eb99190611a85565b11610ec357600080fd5b6000600160009054906101000a900473ffffffffffffffffffffffffffffffffffffffff1673ffffffffffffffffffffffffffffffffffffffff1662fdd58e3360026040518363ffffffff1660e01b8152600401610f22929190611c81565b60206040518083038186803b158015610f3a57600080fd5b505afa158015610f4e573d6000803e3d6000fd5b505050506040513d601f19601f82011682018060405250810190610f729190611a85565b11610f7c57600080fd5b600160009054906101000a900473ffffffffffffffffffffffffffffffffffffffff1673ffffffffffffffffffffffffffffffffffffffff1663367605ca333060016040518463ffffffff1660e01b8152600401610fdc93929190611c4a565b600060405180830381600087803b158015610ff657600080fd5b505af115801561100a573d6000803e3d6000fd5b50505050600160009054906101000a900473ffffffffffffffffffffffffffffffffffffffff1673ffffffffffffffffffffffffffffffffffffffff1663f5298aca33600060016040518463ffffffff1660e01b815260040161106f93929190611caa565b600060405180830381600087803b15801561108957600080fd5b505af115801561109d573d6000803e3d6000fd5b50505050600160009054906101000a900473ffffffffffffffffffffffffffffffffffffffff1673ffffffffffffffffffffffffffffffffffffffff1663f5298aca33600260016040518463ffffffff1660e01b815260040161110293929190611caa565b600060405180830381600087803b15801561111c57600080fd5b505af1158015611130573d6000803e3d6000fd5b50505050600160009054906101000a900473ffffffffffffffffffffffffffffffffffffffff1673ffffffffffffffffffffffffffffffffffffffff1663731133e933600560016040518463ffffffff1660e01b815260040161119593929190611ce1565b600060405180830381600087803b1580156111af57600080fd5b505af11580156111c3573d6000803e3d6000fd5b505050505b5b5b5b505050565b60008114806111df5750600181145b806111ea5750600281145b611229576040517f08c379a000000000000000000000000000000000000000000000000000000000815260040161122090611d4b565b60405180910390fd5b42600260003373ffffffffffffffffffffffffffffffffffffffff1673ffffffffffffffffffffffffffffffffffffffff16815260200190815260200160002054106112aa576040517f08c379a00000000000000000000000000000000000000000000000000000000081526004016112a190611d6b565b60405180910390fd5b600160009054906101000a900473ffffffffffffffffffffffffffffffffffffffff1673ffffffffffffffffffffffffffffffffffffffff1663731133e9338360016040518463ffffffff1660e01b815260040161130a93929190611ce1565b600060405180830381600087803b15801561132457600080fd5b505af1158015611338573d6000803e3d6000fd5b5050505042600260003373ffffffffffffffffffffffffffffffffffffffff1673ffffffffffffffffffffffffffffffffffffffff1681526020019081526020016000208190555050565b61138b611846565b61139560006118c4565b565b60008060009054906101000a900473ffffffffffffffffffffffffffffffffffffffff16905090565b60038114806113cf5750600481145b806113da5750600581145b806113e55750600681145b611424576040517f08c379a000000000000000000000000000000000000000000000000000000000815260040161141b90611deb565b60405180910390fd5b600160009054906101000a900473ffffffffffffffffffffffffffffffffffffffff1673ffffffffffffffffffffffffffffffffffffffff1663367605ca333060016040518463ffffffff1660e01b815260040161148493929190611c4a565b600060405180830381600087803b15801561149e57600080fd5b505af11580156114b2573d6000803e3d6000fd5b50505050600160009054906101000a900473ffffffffffffffffffffffffffffffffffffffff1673ffffffffffffffffffffffffffffffffffffffff1663f5298aca338360016040518463ffffffff1660e01b815260040161151693929190611caa565b600060405180830381600087803b15801561153057600080fd5b505af1158015611544573d6000803e3d6000fd5b5050505050565b600382148061155a5750600482145b806115655750600582145b806115705750600682145b6115af576040517f08c379a00000000000000000000000000000000000000000000000000000000081526004016115a690611dab565b60405180910390fd5b60008114806115be5750600181145b806115c95750600281145b611608576040517f08c379a00000000000000000000000000000000000000000000000000000000081526004016115ff90611dcb565b60405180910390fd5b600160009054906101000a900473ffffffffffffffffffffffffffffffffffffffff1673ffffffffffffffffffffffffffffffffffffffff1663367605ca333060016040518463ffffffff1660e01b815260040161166893929190611c4a565b600060405180830381600087803b15801561168257600080fd5b505af1158015611696573d6000803e3d6000fd5b50505050600160009054906101000a900473ffffffffffffffffffffffffffffffffffffffff1673ffffffffffffffffffffffffffffffffffffffff1663f5298aca338460016040518463ffffffff1660e01b81526004016116fa93929190611caa565b600060405180830381600087803b15801561171457600080fd5b505af1158015611728573d6000803e3d6000fd5b50505050600160009054906101000a900473ffffffffffffffffffffffffffffffffffffffff1673ffffffffffffffffffffffffffffffffffffffff1663731133e9338360016040518463ffffffff1660e01b815260040161178c93929190611ce1565b600060405180830381600087803b1580156117a657600080fd5b505af11580156117ba573d6000803e3d6000fd5b505050505050565b6117ca611846565b600073ffffffffffffffffffffffffffffffffffffffff168173ffffffffffffffffffffffffffffffffffffffff16141561183a576040517f08c379a000000000000000000000000000000000000000000000000000000000815260040161183190611d2b565b60405180910390fd5b611843816118c4565b50565b61184e611988565b73ffffffffffffffffffffffffffffffffffffffff1661186c611397565b73ffffffffffffffffffffffffffffffffffffffff16146118c2576040517f08c379a00000000000000000000000000000000000000000000000000000000081526004016118b990611d8b565b60405180910390fd5b565b60008060009054906101000a900473ffffffffffffffffffffffffffffffffffffffff169050816000806101000a81548173ffffffffffffffffffffffffffffffffffffffff021916908373ffffffffffffffffffffffffffffffffffffffff1602179055508173ffffffffffffffffffffffffffffffffffffffff168173ffffffffffffffffffffffffffffffffffffffff167f8be0079c531659141344cd1fd0a4f28419497f9722a3daafe3b4186f6b6457e060405160405180910390a35050565b600033905090565b60008135905061199f81612009565b92915050565b6000813590506119b481612020565b92915050565b6000813590506119c981612037565b92915050565b6000815190506119de81612037565b92915050565b6000602082840312156119f657600080fd5b6000611a0484828501611990565b91505092915050565b600080600060608486031215611a2257600080fd5b6000611a30868287016119a5565b9350506020611a41868287016119a5565b9250506040611a52868287016119a5565b9150509250925092565b600060208284031215611a6e57600080fd5b6000611a7c848285016119ba565b91505092915050565b600060208284031215611a9757600080fd5b6000611aa5848285016119cf565b91505092915050565b60008060408385031215611ac157600080fd5b6000611acf858286016119ba565b9250506020611ae0858286016119ba565b9150509250929050565b611af381611e2d565b82525050565b611b0281611e3f565b82525050565b6000611b15602683611e1c565b9150611b2082611e75565b604082019050919050565b6000611b38601a83611e1c565b9150611b4382611ec4565b602082019050919050565b6000611b5b602183611e1c565b9150611b6682611eed565b604082019050919050565b6000611b7e602083611e1c565b9150611b8982611f3c565b602082019050919050565b6000611ba1602183611e1c565b9150611bac82611f65565b604082019050919050565b6000611bc4601d83611e1c565b9150611bcf82611fb4565b602082019050919050565b6000611be7601f83611e1c565b9150611bf282611fdd565b602082019050919050565b6000611c0a600083611e0b565b9150611c1582612006565b600082019050919050565b611c2981611e6b565b82525050565b6000602082019050611c446000830184611aea565b92915050565b6000606082019050611c5f6000830186611aea565b611c6c6020830185611aea565b611c796040830184611af9565b949350505050565b6000604082019050611c966000830185611aea565b611ca36020830184611c20565b9392505050565b6000606082019050611cbf6000830186611aea565b611ccc6020830185611c20565b611cd96040830184611c20565b949350505050565b6000608082019050611cf66000830186611aea565b611d036020830185611c20565b611d106040830184611c20565b8181036060830152611d2181611bfd565b9050949350505050565b60006020820190508181036000830152611d4481611b08565b9050919050565b60006020820190508181036000830152611d6481611b2b565b9050919050565b60006020820190508181036000830152611d8481611b4e565b9050919050565b60006020820190508181036000830152611da481611b71565b9050919050565b60006020820190508181036000830152611dc481611b94565b9050919050565b60006020820190508181036000830152611de481611bb7565b9050919050565b60006020820190508181036000830152611e0481611bda565b9050919050565b600082825260208201905092915050565b600082825260208201905092915050565b6000611e3882611e4b565b9050919050565b60008115159050919050565b600073ffffffffffffffffffffffffffffffffffffffff82169050919050565b6000819050919050565b7f4f776e61626c653a206e6577206f776e657220697320746865207a65726f206160008201527f6464726573730000000000000000000000000000000000000000000000000000602082015250565b7f496420636f756c64206f6e6c7920626520302c2031206f722032000000000000600082015250565b7f4d696e74696e672074696d656f7574206861736e27742070617373656420796560008201527f7400000000000000000000000000000000000000000000000000000000000000602082015250565b7f4f776e61626c653a2063616c6c6572206973206e6f7420746865206f776e6572600082015250565b7f4964696e20636f756c64206f6e6c79206265206f6e65206f6620332c342c352c60008201527f3600000000000000000000000000000000000000000000000000000000000000602082015250565b7f49644f757420636f756c64206f6e6c7920626520302c2031206f722032000000600082015250565b7f496420636f756c64206f6e6c79206265206f6e65206f6620332c342c352c3600600082015250565b50565b61201281611e2d565b811461201d57600080fd5b50565b61202981611e3f565b811461203457600080fd5b50565b61204081611e6b565b811461204b57600080fd5b5056fea264697066735822122008d18a56eb5a9cda87e38ae985dee6df6b9d75ef85decfe06c8d1310339d498864736f6c63430008040033",
  "linkReferences": {},
  "deployedLinkReferences": {}
}